:0A149700000102020303040405052E
:1009BF00E4F540F53FF53EF53DC20DC20AC20CC24B
:1009CF000B120DD27E107F008E0A8F0B75121075D1
:1009DF00131275081075091C75101075114A7514CE
:1009EF0010751578EE54C07003020AC47541007576
:1009FF0042808E438F44C3749A9FFF74109ECF24FE
:100A0F0002CF3400FEE48F3C8E3BF53AF539F538D2
:100A1F00F537F536F535AF3CAE3BAD3AAC39AB38C3
:100A2F00AA37A936A835C31211965037E544253891
:100A3F00F582E5433537F583E0FFE5422538F5824A
:100A4F00E5413537F583EFF0E4FAF9F8E53824019D
:100A5F00F538EA3537F537E93536F536E83535F512
:100A6F003580B385410A85420B74002480FF7410D2
:100A7F0034FFFEC3E5139FF513E5129EF512C3E590
:100A8F000D9FF50DE50C9EF50CC3E50F9FF50FE5DA
:100A9F000E9EF50EC3E5099FF509E5089EF508C3FF
:100AAF00E5119FF511E5109EF510C3E5159FF5159E
:100ABF00E5149EF514D2E843D82090E668E0440987
:100ACF00F090E65CE0443DF0D2AF90E680E020E1AC
:100ADF0005D20912133590E680E054F7F0538EF8E3
:100AEF00C20D1213BB300B0512049FC20B300DF257
:100AFF0012004150EDC20D12000E7580FFE4F5801B
:100B0F00200A1690E682E030E704E020E1E990E663
:100B1F0082E030E604E020E0DE1213641200518020
:020B2F00C122E1
:0B00360090E50DE030E402C322D3226D
:10049F0090E6B9E0700302058A1470030206332454
:1004AF00FE70030206C924FB700302058414700357
:1004BF0002057E147003020572147003020578247E
:1004CF0005600302073E120056400302074A90E6FA
:1004DF00BBE024FE603B14605624FD6016146040A0
:1004EF0024067075E50A90E6B3F0E50B90E6B4F0DC
:1004FF0002074A120036500FE51290E6B3F0E513EB
:10050F0090E6B4F002074A90E6A0E04401F002073B
:10051F004AE50C90E6B3F0E50D90E6B4F002074A19
:10052F00E50E90E6B3F0E50F90E6B4F002074A90BF
:10053F00E6BAE0FF121390AA06A9077B01EA494B1E
:10054F00600DEE90E6B3F0EF90E6B4F002074A903C
:10055F00E6A0E04401F002074A90E6A0E04401F073
:10056F0002074A12147A02074A1214AA02074A1201
:10057F00000302074A12146802074A120058400388
:10058F0002074A90E6B8E0247F602B14603C2402F7
:10059F006003020629A20AE433FF25E0FFA20CE460
:1005AF00334F90E740F0E4A3F090E68AF090E68BAB
:1005BF007402F002074AE490E740F0A3F090E68A55
:1005CF00F090E68B7402F002074A90E6BCE0547E8E
:1005DF00FF7E00E0D3948040067C007D0180047C88
:1005EF00007D00EC4EFEED4F2497F58274143EF51E
:1005FF0083E493FF3395E0FEEF24A1FFEE34E68F03
:10060F0082F583E0540190E740F0E4A3F090E68A8E
:10061F00F090E68B7402F002074A90E6A0E04401E6
:10062F00F002074A120EFA400302074A90E6B8E0BA
:10063F0024FE601D2402600302074A90E6BAE0B46C
:10064F000105C20A02074A90E6A0E04401F0020742
:10065F004A90E6BAE0705990E6BCE0547EFF7E0007
:10066F00E0D3948040067C007D0180047C007D00F7
:10067F00EC4EFEED4F2497F58274143EF583E49310
:10068F00FF3395E0FEEF24A1FFEE34E68F82F58372
:10069F00E054FEF090E6BCE05480FF131313541F98
:1006AF00FFE0540F2F90E683F0E04420F002074A5A
:1006BF0090E6A0E04401F002074A120EFC507C9035
:1006CF00E6B8E024FE60202402705B90E6BAE0B446
:1006DF000104D20A806590E6BAE06402605D90E69C
:1006EF00A0E04401F0805490E6BCE0547EFF7E0011
:1006FF00E0D3948040067C007D0180047C007D0067
:10070F00EC4EFEED4F2497F58274143EF583E4937F
:10071F00FF3395E0FEEF24A1FFEE34E68F82F583E1
:10072F00E04401F0801590E6A0E04401F0800C1247
:10073F000EFE500790E6A0E04401F090E6A0E044E2
:03074F0080F02215
:0300330002004682
:0400460053D8EF326A
:02004E00C103EC
:10145400D200D202D201C204E4F588758901F58E66
:0414640053B8FD225A
:0914A100C200C202C201D2042201
:100B3100300229C20290E0007490F0A37494F0A3F3
:100B41007498F0A3749CF0A374DEF0A374DCF0A39A
:100B510074D8F0E4F54B754F01020BFAC2AF90E087
:100B61003FE54AF0E4F545F54674862546F582747D
:100B7100E03545F583E0FF74402546F58274E035A4
:100B810045F583EFF00546E54670020545640745E6
:100B91004570D6E4F545F54674072546F58274E0BF
:100BA1003545F583E0FF74472546F58274E0354508
:100BB100F583EFF00546E5467002054564084545B5
:100BC10070D6E4F545F546740F2546F58274E03597
:100BD10045F583E0FF744F2546F58274E03545F510
:100BE10083EFF00546E546700205456430454570E2
:100BF100D6754B01E4F54FD2AFE4F545F546748661
:100C01002546F58274E03545F5837401F00546E526
:100C110046700205456407454570E3E4F545F54630
:100C210074072546F58274E03545F583E4F0054601
:100C3100E546700205456408454570E4E4F545F56F
:100C410046740F2546F58274E03545F583E4F005D9
:100C510046E546700205456430454570E4754A0134
:100C6100755001754C01E4F54D5391DFF55190E656
:100C710078E04480F090E6797490F090E67A74021E
:0A0C8100F043E8027F011213DA22AB
:1012360000000090E6047480F00000007482F00064
:1012460000007484F00000007486F00000007488CA
:10125600F0000000E4F0000000FFFE90E649748212
:10126600F00000000FBF00010EE4B507EEEEB40873
:02127600EA226A
:100C8B00D207753302C2081212F8C20790E67BE056
:100C9B00F533C2081212F8C20790E67BE0F533C2B7
:100CAB00081212F8C20790E67BE0F533C208121265
:100CBB00F8C20790E67BE0F533C2081212F8D207B0
:100CCB00753304C2081212F8C20790E67BE0F533C5
:100CDB00C2081212F8C20790E67BE0F533C2081285
:100CEB0012F8C20790E67BE0F533C2081212F8D275
:100CFB0007753307C2081212F8C20790E67BE0F5BE
:100D0B0033C2081212F830053ED20775330EC208F3
:100D1B001212F8C20790E67BE0F533C2081212F804
:100D2B00C20790E67BE0F533C2081212F8C20790B7
:100D3B00E67BE0F533C2081212F8C20790E67BE0BF
:100D4B00F533C2081212F8D207852C33C2081212DF
:100D5B00F8E4F532F531F530F52F300664F52DF565
:100D6B002ED207E52E2413F533C2081212F8AF3238
:100D7B00AE31AD30AC2F78081211BAE4F532EEF586
:100D8B0031EDF530ECF52FC207E4F533D208121232
:100D9B00F8E4EFE4E5324FF532E531F531E530F5C6
:100DAB0030E52FF52F052EE52E7002052DC394048B
:100DBB00E52D6480948040A9AF32AE31AD30AC2FBD
:070DCB0022E4FFFEFDFC2203
:1012F80030070543B101800353B1FE30081843B1EC
:1013080010E4F5B453B1DF43B12043B12043B12019
:10131800AFA053B1DF2253B1EF75B4FF8533A053AB
:0D132800B1DF43B12053B1DFE4F5B4FF2283
:100DD20090E605E054FDF090E600E04412F075B2B2
:100DE200BB758008E4F5B3F590F5B4F5A0F5B5F55B
:100DF200B075B63975B10890E60B7403F0000000C7
:100E020090E61274A0F000000090E61474E0F00086
:100E1200000090E61074B0F000000090E611F000BF
:100E22000000E490E613F000000090E615F00000E8
:100E32000012123690E6017443F000000090E618AA
:100E42007411F000000090E61A7409F0000000E44A
:100E520090E602F000000090E603F000000090E649
:100E6200707480F0000000E490E609F00000009049
:100E7200E6247402F0000000E490E625F000000091
:100E820090E6307418F0000000E490E631F00000C3
:100E92000090E6347488F0000000E490E68DF0756E
:100EA200AF0790E67AF053F8FDC200C201D202C247
:100EB20004754A0190E65F7408F090E65EF075E80A
:070EC20001E4F552D2AF225A
:1013BB00300009300118120B31C2012230040FC268
:0F13CB0004C2AF12148C5391DF53E8FDD2AF224E
:02004100C322D8
:02005100D322B8
:02005600D322B3
:0800030090E6BAE0F553D322A8
:1014680090E740E553F0E490E68AF090E68B04F0CC
:02147800D3227D
:0814AA0090E6BAE0F547D322F9
:10147A0090E740E547F0E490E68AF090E68B04F0C6
:02148A00D3226B
:02005800D322B1
:020EFA00D32201
:020EFC00D322FF
:020EFE00D322FD
:1013F800C0E0C083C082D20B5391EF90E65D7401C8
:08140800F0D082D083D0E03265
:10142800C0E0C083C0825391EF90E65D7404F0D0B1
:0614380082D083D0E032F7
:10143E00C0E0C083C0825391EF90E65D7402F0D09D
:06144E0082D083D0E032E1
:1012BA00C0E0C083C08285100C85110D850D828522
:1012CA000C83A37402F085080E85090F850F8285A9
:1012DA000E83A37407F075480075490005525391AF
:0E12EA00EF90E65D7410F0D082D083D0E03239
:10141000C0E0C083C082D20D5391EF90E65D7408A6
:08142000F0D082D083D0E0324D
:1011F300C0E0C083C08290E680E030E72085080C21
:1012030085090D850D82850C83A37402F085100E6C
:1012130085110F850F82850E83A37407F07548AB84
:101223007549CD5391EF90E65D7420F0D082D08361
:03123300D0E032D6
:01004A003283
:01005A003273
:010FFE0032C0
:010FFF0032BF
:0114B2003207
:10005E00C0E0C0F0C083C082C0D075D000C000C068
:10006E0001C002C003C004C005C006C007C2AF5322
:10007E0091EF90E65F7408F07AE779807EE77F80F3
:10008E0074E7F59A7480F59B90E67BE0F5241211E7
:10009E00CD01DE0901DE0A01F70B02040C02740D1C
:1000AE0000DFA000F3A10176A20193A301EBA4024D
:1000BE00E0A50314A60355A70375A80392A90398F8
:1000CE00AA039EAB03F3AC0446B002AAFF000004E1
:1000DE007D3000031214A1C280C281C283000000D1
:1000EE00D28302047D90E67BE0F525D3943E400555
:1000FE007526008045752601752200752300C3E51F
:10010E002395257480F8652298502F90E67BE0FFAA
:10011E00E4FDFCEF30E704D2818002C281D280C2BE
:10012E0080EF25E0FF0DBD00010CED64084C70E37F
:10013E000523E5237002052280C4C203E52B30E1BE
:10014E0005D20302047D7AE779C07EE77FC074E7AB
:10015E00F59A74C0F59B90E67BE524F0E526F090C9
:10016E00E68F7402F002047D90E67BE0F525D2075F
:10017E00E0F533C2081212F8C207E0F533C20812D6
:10018E0012F802047D90E67BE0F525D207E0F53308
:10019E00C2081212F890E6A2E0F52BC20330E10578
:1001AE00D20302047D7AE779C07EE77FC074E7F55B
:1001BE009A74C0F59B90E67BE524F0C20775330078
:1001CE00D2081212F8EFF090E68F7402F002047D5E
:1001DE00C205C20685242C120C8B02047D43B10885
:1001EE0053B1F743B10802047DD205C20685242C13
:1001FE00120C8B02047DC205D20685242C120C8BA8
:10020E008F2A8E298D288C27C20390E6A2E0F52B2B
:10021E0030E105D20302047D7AE779C07EE77FC024
:10022E0074E7F59A74C0F59B90E67BE524F0752291
:10023E0000752300C37403952375F008A4F9AF2A43
:10024E00AE29AD28AC27F81211A790E67BEFF0058A
:10025E0023E523700205226404452270D790E68FB1
:10026E007405F002047D752B007522007523009035
:10027E00E67BE064556003752B010523E5237002D0
:10028E0005226403452270E7E52B600302047DD24C
:10029E000775330DC2081212F802047D752B007516
:1002AE00220075230090E67BE064556003752B01F8
:1002BE000523E523700205226403452270E7E52B32
:1002CE00600302047DD2077533FFC2081212F802D2
:1002DE00047D121236C20390E6A2E0F52B30E10542
:1002EE00D20302047D7AE779C07EE77FC074E7F51A
:1002FE009A74C0F59B90E67BE524F07401F090E6CD
:10030E008F04F002047DC20390E6A2E0F52B30E1EB
:10031E0005D20302047D7AE779C07EE77FC074E7D9
:10032E00F59A74C0F59B90E67BE524F085B12BE53C
:10033E002B30E7057401F0800590E67BE4F090E643
:10034E008F7402F002047D53917F53F8F7D2077534
:10035E003301C2081212F8C207753301C208121215
:10036E00F843E80802047DD207753301C208121261
:10037E00F8C207753300C2081212F853E8F753910A
:10038E007F02047D12145402047D1214A102047D16
:10039E00C20390E6A2E0F52B30E105D20302047D04
:1003AE007AE779C07EE77FC074E7F59A74C0F59B53
:1003BE0090E67BE524F0F075220075230074472546
:1003CE0023F58274E03522F583E090E67BF0052379
:1003DE00E523700205226438452270E190E68F74A1
:1003EE003AF002047DC20390E6A2E0F52B30E10460
:1003FE00D203807B7AE779C07EE77FC074E7F59AF7
:10040E0074C0F59B90E67BE524F0F0752200752311
:10041E0000743F2523F58274E03522F583E090E6E3
:10042E007BF00523E523700205226408452270E166
:10043E0090E68F740AF08037C20390E6A2E0F52BA7
:10044E0030E104D20380287AE779C07EE77FC0745A
:10045E00E7F59A74C0F59B90E67BE524F0E548F04D
:10046E00E549F0E552F074BBF090E68F7405F0901C
:10047E00E68DE4F0D2AFD007D006D005D004D0037D
:10048E00D002D001D000D0D0D082D083D0F0D0E036
:01049E00322B
:0114B3003206
:0114B4003205
:0114B5003204
:0114B6003203
:0114B7003202
:0114B8003201
:0114B9003200
:0114BA0032FF
:0114BB0032FE
:0114BC0032FD
:0114BD0032FC
:0114BE0032FB
:0114BF0032FA
:0114C00032F9
:0114C10032F8
:0114C20032F7
:0114C30032F6
:0114C40032F5
:0114C50032F4
:0114C60032F3
:0114C70032F2
:0114C80032F1
:0114C90032F0
:0114CA0032EF
:0114CB0032EE
:0114CC0032ED
:0114CD0032EC
:0114CE0032EB
:0114CF0032EA
:0114D00032E9
:101000001201000200000040B404041000000102BC
:1010100000010A06000200000040010009022E0043
:1010200001010080320904000004FF0000000705F0
:10103000010240000007058102400000070502028E
:101040000002000705860200020009022E000101CD
:101050000080320904000004FF00000007050102BF
:101060004000000705810240000007050202400021
:101070000007058602400000040309041003430032
:101080007900700072006500730073000E03450064
:0C1090005A002D005500530042000000E3
:03004300020F00A9
:03005300020F0099
:100F00000213F80002143E0002142800021410001C
:100F10000212BA000211F30002004A0002005A0055
:100F2000020FFE00020FFF000214B20002005E007A
:100F30000214B3000214B4000214B5000214B60087
:100F40000214B70002005A000214B8000214B900DB
:100F50000214BA000214BB000214BC000214BD004B
:100F60000214BE0002005A0002005A0002005A0099
:100F70000214BF000214C0000214C1000214C20017
:100F80000214C3000214C4000214C5000214C600F7
:100F90000214C7000214C8000214C9000214CA00D7
:100FA0000214CB000214CC000214CD000214CE00B7
:080FB0000214CF000214D0006E
:1013640090E682E030E004E020E60B90E682E03094
:10137400E119E030E71590E680E04401F07F147E47
:0C13840000120FB890E680E054FEF0224A
:1013350030090990E680E0440AF0800790E680E0F5
:101345004408F07FDC7E05120FB890E65D74FFF06F
:0F13550090E65FF05391EF90E680E054F7F022BE
:02139000A907AB
:10139200AE14AF158F828E83A3E064037017AD0184
:1013A20019ED7001228F828E83E07C002FFDEC3ECE
:0813B200FEAF0580DFE4FEFF41
:0113BA002210
:10000E0090E682E044C0F090E681F0438701000064
:04001E0000000022BC
:100FB8008E458F4690E600E054187012E5462401ED
:100FC800FFE43545C313F545EF13F546801590E664
:100FD80000E05418FFBF100BE54625E0F546E5454F
:100FE80033F545E5461546AE45700215454E600594
:060FF80012002280EE222F
:100022007400F58690FDA57C05A3E582458370F9F1
:0100320022AB
:03000B0002127866
:10127800C0E0C0D0C2AF53A8FD758800E54E70200D
:10128800E54DB43F09754D00D201D2AF801F054D21
:10129800758C00758A0143A802758810D2AF800D3D
:1012A800754A00D20153A8FD53E8FDD2AFD0D0D083
:0212B800E03222
:03004B0002075257
:10075200C0E0C0F0C083C082C0D075D000C000C06D
:1007620001C002C003C004C005C006C007C2AF5327
:1007720091DF12148CE550B4080040030209A290E4
:100782000788F82828730207A00209570207DA022D
:1007920008000208730208E102092402097F90E6B8
:1007A20078E04480F074002551F582E434E0F5836A
:1007B200E090E679F0755001E54B7005754F0180C8
:1007C2000DE54BB40105754F008003754F00054CD4
:1007D2007F011213DA0209A290E678E04480F074F5
:1007E200002551F582E434E0F583E0440190E67996
:1007F200F0755003054C7F011213DA0209A290E64C
:1008020078E030E11D90E679E0F534E54BB401057E
:100812007550058003755006054C7F011213DA02EC
:1008220009A290E678E04440F074862551F582E40E
:1008320034E0F583E4F0E551B40313754B027550CF
:1008420000754C0005517F011213DA0209A2E5512D
:10085200B4060E53E8FD5391DFE4FF1213DA0209E6
:10086200A2755000754C0005517F011213DA02097E
:10087200A290E678E04440F090E679E0F534E54B6A
:10088200B40128E55125E02408F582E434E0F5833B
:10089200E534F0E551B40303754B02055175500080
:1008A2007F011213DA754C000209A2E551C454F01B
:1008B20024DEF582E434DFF583E534F0E551B40655
:1008C2000EE4FF1213DA53E8FD5391DF0209A27519
:1008D2004C0075500005517F011213DA0209A290F3
:1008E200E678E04420F0E54BB4011690E679E0FFAB
:1008F200E55125E02407F582E434E0F583EFF0804A
:100902001590E679E0FFE551C454F024DDF582E468
:1009120034DFF583EFF0054C7550047F011213DAD2
:10092200807E90E679E0FF75F010E551A4254CF544
:1009320082E435F0F583E58224CBF582E58334DF6A
:10094200F583EFF0054CE54CB412037550057F01B9
:100952001213DA804B90E679E54FF0E54B7012E521
:100962004CB40108754F60755001800875500780BE
:1009720003755002054C7F011213DA802390E6784A
:10098200E04440F0E551B4030AE4FF1213DA53E8FD
:10099200FD800D05517F011213DA755000754C0070
:1009A200D2AFD007D006D005D004D003D002D001F8
:0D09B200D000D0D0D082D083D0F0D0E03281
:03005B0002112867
:10112800C0E0C0F0C083C082C0D075D000C000C08D
:1011380001C002C003C004C005C006C007C2AF5347
:10114800917FC20390E6A2E030E104D20380247AC2
:10115800E779C07EE77FC074E7F59A74C0F59B9085
:10116800E67B74EFF0120EC990E67BEFF090E68F05
:101178007402F0D007D006D005D004D003D002D036
:0E11880001D000D0D0D082D083D0F0D0E032A1
:100EC90043B10153B1EF75B4FFE4F5A053B1DF436A
:100ED900B12053B1DFF5B453B1FE43B110F5B453AA
:100EE900B1DF43B12043B12043B120AFA053B1DFFB
:010EF90022D6
:0B148C0053A8FDE4F588F58CF58A22DA
:1013DA00EF700BF54EF54DF58C758A018009754E47
:0E13EA0001758CF3758A8075881043A8022265
:0300000002109C4F
:0C109C00787FE4F6D8FD7581530210E364
:10119600EB9FF5F0EA9E42F0E99D42F0E89C45F0AF
:0111A6002226
:1011A700E8600FECC313FCED13FDEE13FEEF13FF26
:0311B700D8F1224A
:1011BA00E8600FEFC333FFEE33FEED33FDEC33FC93
:0311CA00D8F12237
:1011CD00D083D082F8E4937012740193700DA3A3B1
:1011DD0093F8740193F5828883E4737402936860C5
:0611ED00EFA3A3A380DFC5
:1010A8000209BFE493A3F8E493A34003F68001F296
:1010B80008DFF48029E493A3F85407240CC8C33349
:1010C800C4540F4420C8834004F456800146F6DF18
:1010D800E4800B010204081020408090004EE47E5A
:1010E800019360BCA3FF543F30E509541FFEE4930D
:1010F800A360010ECF54C025E060A840B8E493A3D4
:10110800FAE493A3F8E493A3C8C582C8CAC583CAFE
:10111800F0A3C8C582C8CAC583CADFE9DEE780BEB6
:0100500000AF
:00000001FF
