:0A10F60000010202030304040505D3
:100C5D00E4F540F53FF53EF53DC20DC20AC20CC2AA
:100C6D000B120F167E127F008E0A8F0B75121275E6
:100C7D00131275081275091C75101275114A751429
:100C8D0012751578EE54C07003020D627541007532
:100C9D0042808E438F44C3749A9FFF74129ECF245B
:100CAD0002CF3400FEE48F3C8E3BF53AF539F53832
:100CBD00F537F536F535AF3CAE3BAD3AAC39AB3823
:100CCD00AA37A936A835C31210995037E5442538EF
:100CDD00F582E5433537F583E0FFE5422538F582AA
:100CED00E5413537F583EFF0E4FAF9F8E5382401FD
:100CFD00F538EA3537F537E93536F536E83535F572
:100D0D003580B385410A85420B74002480FF74122F
:100D1D0034FFFEC3E5139FF513E5129EF512C3E5EF
:100D2D000D9FF50DE50C9EF50CC3E50F9FF50FE539
:100D3D000E9EF50EC3E5099FF509E5089EF508C35E
:100D4D00E5119FF511E5109EF510C3E5159FF515FD
:100D5D00E5149EF514D2E843D82090E668E04409E6
:100D6D00F090E65CE0443DF0D2AF90E680E020E10B
:100D7D0005D20912147D90E680E054F7F0538EF8F9
:100D8D00C20D121503300B051205A7C20B300DF263
:100D9D0012004150EDC20D12000E7580FFE4F5807A
:100DAD00200A1690E682E030E704E020E1E990E6C3
:100DBD0082E030E604E020E0DE1214AC1200518037
:020DCD00C12241
:0B00360090E50DE030E402C322D3226D
:1005A70090E6B9E0700302069214700302073B2439
:1005B700FE70030207D124FB700302068C1470033C
:1005C70002068614700302067A147003020680245A
:1005D700056003020846120056400302085290E6DF
:1005E700BBE024FE603B14605624FD601614604097
:1005F70024067075E50A90E6B3F0E50B90E6B4F0D3
:10060700020852120036500FE51290E6B3F0E513D8
:1006170090E6B4F002085290E6A0E04401F0020828
:1006270052E50C90E6B3F0E50D90E6B4F0020852FF
:10063700E50E90E6B3F0E50F90E6B4F002085290AD
:10064700E6BAE0FF1214D8AA06A9077B01EA494BCC
:10065700600DEE90E6B3F0EF90E6B4F0020852902A
:10066700E6A0E04401F002085290E6A0E04401F061
:100677000208521215C20208521215E80208521255
:1006870000030208521215B0020852120058400324
:1006970002085290E6B8E0247F602B14603C2402E5
:1006A7006003020731A20AE433FF25E0FFA20CE44E
:1006B700334F90E740F0E4A3F090E68AF090E68BA2
:1006C7007402F0020852E490E740F0A3F090E68A43
:1006D700F090E68B7402F002085290E6BCE0547E7C
:1006E700FF7E00E0D3948040067C007D0180047C7F
:1006F700007D00EC4EFEED4F24F6F58274103EF5BA
:1007070083E493FF3395E0FEEF24A1FFEE34E68FF9
:1007170082F583E0540190E740F0E4A3F090E68A85
:10072700F090E68B7402F002085290E6A0E04401D4
:10073700F00208521211FE400302085290E6B8E098
:1007470024FE601D2402600302085290E6BAE0B45A
:100757000105C20A02085290E6A0E04401F002082F
:100767005290E6BAE0705990E6BCE0547EFF7E00F6
:10077700E0D3948040067C007D0180047C007D00EE
:10078700EC4EFEED4F24F6F58274103EF583E493AC
:10079700FF3395E0FEEF24A1FFEE34E68F82F58369
:1007A700E054FEF090E6BCE05480FF131313541F8F
:1007B700FFE0540F2F90E683F0E04420F002085248
:1007C70090E6A0E04401F00208521215F0507C9028
:1007D700E6B8E024FE60202402705B90E6BAE0B43D
:1007E7000104D20A806590E6BAE06402605D90E693
:1007F700A0E04401F0805490E6BCE0547EFF7E0008
:10080700E0D3948040067C007D0180047C007D005D
:10081700EC4EFEED4F24F6F58274103EF583E4931B
:10082700FF3395E0FEEF24A1FFEE34E68F82F583D8
:10083700E04401F0801590E6A0E04401F0800C123E
:1008470015F2500790E6A0E04401F090E6A0E044DE
:0308570080F0220C
:0300330002004682
:0400460053D8EF326A
:02004E00C103EC
:10159C00D200D202D201C204E4F588758901F58E1D
:0415AC0053B8FD2211
:0915DF00C200C202C201D20422C2
:100AC70030022DC20290E0007490F0A37494F0A35A
:100AD7007498F0A3749CF0A374DEF0A374DCF0A305
:100AE70074D8F0A374D0F0E4F54B754F01020BCC2A
:100AF700C2AF90E050E54AF0E4F545F54674F125BC
:100B070046F58274E03545F583E0FF74512546F5D7
:100B17008274E03545F583EFF00546E5467002053A
:100B2700456408454570D6E4F545F54674082546FD
:100B3700F58274E03545F583E0FF74A12546F5821B
:100B470074E03545F583EFF074082546F58274E0C7
:100B57003545F583E0FF74592546F58274E0354540
:100B6700F583EFF00546E5467002054564084545FF
:100B770070BAE4F545F54674102546F58274E035FC
:100B870045F583E0FF74B12546F58274E03545F5F8
:100B970083EFF074102546F58274E03545F583E060
:100BA700FF74612546F58274E03545F583EFF0055E
:100BB70046E546700205456440454570BA754B01E8
:100BC700E4F54FD2AFE4F545F54674F12546F582D5
:100BD70074E03545F5837401F00546E54670020576
:100BE700456408454570E3E4F545F5467408254630
:100BF700F58274E03545F583E4F00546E546700275
:100C070005456408454570E4E4F545F54674102547
:100C170046F58274E03545F583E4F00546E5467010
:100C27000205456440454570E4754A0175500175F4
:100C37004C01E4F54D5391DFF55190E678E044809F
:100C4700F090E6797490F090E67A7402F043E80247
:060C57007F0112152222AC
:10134D0000000090E6047480F00000007482F0004C
:10135D0000007484F00000007486F00000007488B2
:10136D00F0000000E4F0000000FFFE90E6497482FA
:10137D00F00000000FBF00010EE4B507EEEEB4085B
:02138D00EA2252
:100DCF00D207753302C20812140FC20790E67BE0F8
:100DDF00F533C20812140FC20790E67BE0F533C259
:100DEF000812140FC20790E67BE0F533C208121405
:100DFF000FC20790E67BE0F533C20812140FD2073B
:100E0F00753304C20812140FC20790E67BE0F53366
:100E1F00C20812140FC20790E67BE0F533C2081226
:100E2F00140FC20790E67BE0F533C20812140FD2FD
:100E3F0007753307C20812140FC20790E67BE0F55F
:100E4F0033C20812140F30053ED20775330EC20895
:100E5F0012140FC20790E67BE0F533C20812140F8D
:100E6F00C20790E67BE0F533C20812140FC2079059
:100E7F00E67BE0F533C20812140FC20790E67BE061
:100E8F00F533C20812140FD207852C33C20812147F
:100E9F000FE4F532F531F530F52F300664F52DF509
:100EAF002ED207E52E2413F533C20812140FAF32DA
:100EBF00AE31AD30AC2F78081210BDE4F532EEF53F
:100ECF0031EDF530ECF52FC207E4F533D2081214EB
:100EDF000FE4EFE4E5324FF532E531F531E530F56A
:100EEF0030E52FF52F052EE52E7002052DC3940446
:100EFF00E52D6480948040A9AF32AE31AD30AC2F78
:070F0F0022E4FFFEFDFC22BD
:10140F0030070543B101800353B1FE30081843B1D3
:10141F0010E4F5B453B1DF43B12043B12043B12001
:10142F00AFA053B1DF2253B1EF75B4FF8533A05393
:0D143F00B1DF43B12053B1DFE4F5B4FF226B
:100F160090E605E054FDF090E600E04412F075B26C
:100F2600BB758008E4F5B3F590F5B4F5A0F5B5F515
:100F3600B075B63975B10890E60B7403F000000081
:100F460090E61274A0F000000090E61474E0F00041
:100F5600000090E61074B0F000000090E611F0007A
:100F66000000E490E613F000000090E615F00000A3
:100F76000012134D90E6017443F000000090E6184D
:100F86007411F000000090E61A7409F0000000E405
:100F960090E602F000000090E603F000000090E604
:100FA600707480F0000000E490E609F00000009004
:100FB600E6247402F0000000E490E625F00000004C
:100FC60090E6307418F0000000E490E631F000007E
:100FD6000090E6347488F0000000E490E68DF07529
:100FE600AF0790E67AF053F8FDC200C201D202C202
:100FF60004754A0190E65F7408F090E65EF075E8C5
:0710060001E4F552D2AF2214
:10150300300009300118120AC7C2012230040FC289
:0F15130004C2AF1215D45391DF53E8FDD2AF22BB
:02004100C322D8
:02005100D322B8
:02005600D322B3
:0800030090E6BAE0F553D322A8
:1015B00090E740E553F0E490E68AF090E68B04F083
:0215C000D32234
:0815E80090E6BAE0F547D322BA
:1015C20090E740E547F0E490E68AF090E68B04F07D
:0215D200D32222
:02005800D322B1
:0211FE00D322FA
:0215F000D32204
:0215F200D32202
:10154000C0E0C083C082D20B5391EF90E65D74017E
:08155000F0D082D083D0E0321C
:10157000C0E0C083C0825391EF90E65D7404F0D068
:0615800082D083D0E032AE
:10158600C0E0C083C0825391EF90E65D7402F0D054
:0615960082D083D0E03298
:1013D100C0E0C083C08285100C85110D850D82850A
:1013E1000C83A37402F085080E85090F850F828591
:1013F1000E83A37407F07548007549000552539197
:0E140100EF90E65D7410F0D082D083D0E03220
:10155800C0E0C083C082D20D5391EF90E65D74085D
:08156800F0D082D083D0E03204
:10130A00C0E0C083C08290E680E030E72085080C08
:10131A0085090D850D82850C83A37402F085100E54
:10132A0085110F850F82850E83A37407F07548AB6C
:10133A007549CD5391EF90E65D7420F0D082D08349
:03134A00D0E032BE
:01004A003283
:01005A003273
:0115F40032C4
:0115F50032C3
:0115F60032C2
:10005E00C0E0C0F0C083C082C0D075D000C000C068
:10006E0001C002C003C004C005C006C007C2AF5322
:10007E0091EF90E65F7408F07AE779807EE77F80F3
:10008E0074E7F59A7480F59B90E67BE0F5241210E8
:10009E00D001E70901E70A02000B020D0C027D0DEB
:1000AE0000E8A000FCA1017FA2019CA301F4A40220
:1000BE00E9A5031DA6035EA7037EA8039BA903A1C2
:1000CE00AA03A7AB04FBAC03FCAD0451AE04A6AF70
:1000DE00054EB002B3FF000005853000031215DF98
:1000EE00C280C281C283000000D28302058590E6E1
:1000FE007BE0F525D3943E40057526008045752698
:10010E0001752200752300C3E52395257480F865DB
:10011E002298502F90E67BE0FFE4FDFCEF30E704E1
:10012E00D2818002C281D280C280EF25E0FF0DBD58
:10013E0000010CED64084C70E30523E52370020505
:10014E002280C4C203E52B30E105D2030205857A75
:10015E00E779C07EE77FC074E7F59A74C0F59B908F
:10016E00E67BE524F0E526F090E68F7402F00205BA
:10017E008590E67BE0F525D207E0F533C208121430
:10018E000FC207E0F533C20812140F02058590E680
:10019E007BE0F525D207E0F533C20812140F90E686
:1001AE00A2E0F52BC20330E105D2030205857AE702
:1001BE0079C07EE77FC074E7F59A74C0F59B90E630
:1001CE007BE524F0C207753300D20812140FEFF04E
:1001DE0090E68F7402F0020585C205C20685242CB6
:1001EE00120DCF02058543B10853B1F743B1080292
:1001FE000585D205C20685242C120DCF020585C2B7
:10020E0005D20685242C120DCF8F2A8E298D288C8F
:10021E0027C20390E6A2E0F52B30E105D2030205DA
:10022E00857AE779C07EE77FC074E7F59A74C0F5EA
:10023E009B90E67BE524F0752200752300C37403C2
:10024E00952375F008A4F9AF2AAE29AD28AC27F88E
:10025E001210AA90E67BEFF00523E523700205222B
:10026E006404452270D790E68F7405F002058575FB
:10027E002B0075220075230090E67BE06455600329
:10028E00752B010523E523700205226403452270B8
:10029E00E7E52B6003020585D20775330DC2081200
:1002AE00140F020585752B0075220075230090E64C
:1002BE007BE064556003752B010523E52370020571
:1002CE00226403452270E7E52B6003020585D20701
:1002DE007533FFC20812140F02058512134DC203A7
:1002EE0090E6A2E0F52B30E105D2030205857AE710
:1002FE0079C07EE77FC074E7F59A74C0F59B90E6EF
:10030E007BE524F07401F090E68F04F0020585C2BF
:10031E000390E6A2E0F52B30E105D2030205857AC3
:10032E00E779C07EE77FC074E7F59A74C0F59B90BD
:10033E00E67BE524F085B12BE52B30E7057401F063
:10034E00800590E67BE4F090E68F7402F00205855E
:10035E0053917F53F8F7D207753301C20812140F69
:10036E00C207753301C20812140F43E8080205854F
:10037E00D207753301C20812140FC207753300C2BB
:10038E000812140F53E8F753917F02058512159C3E
:10039E000205851215DF020585C20390E6A2E0F57F
:1003AE002B30E105D2030205857AE779C07EE77F1F
:1003BE00C074E7F59A74C0F59B90E67BE524F0F0E7
:1003CE0075220075230074592523F58274E03522B9
:1003DE00F583E090E67BF00523E5237002052264A9
:1003EE0038452270E190E68F743AF0020585C2031B
:1003FE0090E6A2E0F52B30E105D2030205857AE7FF
:10040E0079C07EE77FC074E7F59A74C0F59B90E6DD
:10041E007BE524F0F075220075230074A12523F5E9
:10042E008274E03522F583E090E67BF00523E52328
:10043E00700205226408452270E190E68F740AF07E
:10044E00020585C20390E6A2E0F52B30E105D2034A
:10045E000205857AE779C07EE77FC074E7F59A7466
:10046E00C0F59B90E67BE524F0F075220075230025
:10047E0074B12523F58274E03522F583E090E67B96
:10048E00F00523E523700205226420452270E190D9
:10049E00E68F7422F0020585C20390E6A2E0F52BEA
:1004AE0030E105D2030205857AE779C07EE77FC089
:1004BE0074E7F59A74C0F59B90E67BE524F0F07531
:1004CE00220075232074102523F58274E03522F561
:1004DE0083E090E67BF00523E5237002052264405D
:1004EE00452270E190E68F7422F0020585C20390DA
:1004FE00E6A2E0F52B30E104D203807B7AE779C0E7
:10050E007EE77FC074E7F59A74C0F59B90E67BE5B5
:10051E0024F0F075220075230074502523F58274A3
:10052E00E03522F583E090E67BF00523E5237002AB
:10053E0005226408452270E190E68F740AF0803738
:10054E00C20390E6A2E0F52B30E104D20380287AB4
:10055E00E779C07EE77FC074E7F59A74C0F59B908B
:10056E00E67BE524F0E548F0E549F0E552F074BB92
:10057E00F090E68F7405F090E68DE4F0D2AFD007E0
:10058E00D006D005D004D003D002D001D000D0D0F8
:09059E00D082D083D0F0D0E0320D
:0115F70032C1
:0115F80032C0
:0115F90032BF
:0115FA0032BE
:0115FB0032BD
:0115FC0032BC
:0115FD0032BB
:0115FE0032BA
:0115FF0032B9
:0116000032B7
:0116010032B6
:0116020032B5
:0116030032B4
:0116040032B3
:0116050032B2
:0116060032B1
:0116070032B0
:0116080032AF
:0116090032AE
:01160A0032AD
:01160B0032AC
:01160C0032AB
:01160D0032AA
:01160E0032A9
:01160F0032A8
:0116100032A7
:0116110032A6
:0116120032A5
:0116130032A4
:0116140032A3
:101200001201000200000040B404051000000102B9
:1012100000010A06000200000040010009022E0041
:1012200001010080320904000004FF0000000705EE
:10123000010240000007058102400000070502028C
:101240000002000705860200020009022E000101CB
:101250000080320904000004FF00000007050102BD
:10126000400000070581024000000705020240001F
:101270000007058602400000040309041003430030
:101280007900700072006500730073000E03450062
:0C1290005A002D005500530042000000E1
:03004300021100A7
:0300530002110097
:1011000002154000021586000215700002155800F5
:101110000213D10002130A0002004A0002005A0022
:101120000215F4000215F5000215F60002005E003B
:101130000215F7000215F8000215F9000215FA0071
:101140000215FB0002005A000215FC000215FD000A
:101150000215FE000215FF00021600000216010033
:101160000216020002005A0002005A0002005A0051
:1011700002160300021604000216050002160600FD
:1011800002160700021608000216090002160A00DD
:1011900002160B0002160C0002160D0002160E00BD
:1011A00002160F000216100002161100021612009D
:0811B0000216130002161400E0
:1014AC0090E682E030E004E020E60B90E682E0304B
:1014BC00E119E030E71590E680E04401F07F147EFE
:0C14CC00001211B890E680E054FEF022FF
:10147D0030090990E680E0440AF0800790E680E0AC
:10148D004408F07FDC7E051211B890E65D74FFF024
:0F149D0090E65FF05391EF90E680E054F7F02275
:0214D800A90762
:1014DA00AE14AF158F828E83A3E064037017AD013B
:1014EA0019ED7001228F828E83E07C002FFDEC3E85
:0814FA00FEAF0580DFE4FEFFF8
:0115020022C6
:10000E0090E682E044C0F090E681F0438701000064
:04001E0000000022BC
:1011B8008E458F4690E600E054187012E5462401EB
:1011C800FFE43545C313F545EF13F546801590E662
:1011D80000E05418FFBF100BE54625E0F546E5454D
:1011E80033F545E5461546AE45700215454E600592
:0611F80012002280EE222D
:100022007400F58690FDA57C05A3E582458370F9F1
:0100320022AB
:03000B0002138F4E
:10138F00C0E0C0D0C2AF53A8FD758800E54E7020F5
:10139F00E54DB43F09754D00D201D2AF801F054D09
:1013AF00758C00758A0143A802758810D2AF800D25
:1013BF00754A00D20153A8FD53E8FDD2AFD0D0D06B
:0213CF00E0320A
:03004B0002085A4E
:10085A00C0E0C0F0C083C082C0D075D000C000C064
:10086A0001C002C003C004C005C006C007C2AF531E
:10087A0091DF1215D4E550B408004003020AAA9089
:10088A000890F82828730208A8020A5F0208E20200
:10089A00090802097B0209E9020A2C020A8790E682
:1008AA0078E04480F074002551F582E434E0F58361
:1008BA00E090E679F0755001E54B7005754F0180BF
:1008CA000DE54BB40105754F008003754F00054CCB
:1008DA007F01121522020AAA90E678E04480F07499
:1008EA00002551F582E434E0F583E0440190E6798D
:1008FA00F0755003054C7F01121522020AAA90E6F0
:10090A0078E030E11D90E679E0F534E54BB4010575
:10091A007550058003755006054C7F011215220299
:10092A000AAA90E678E04440F074F12551F582E491
:10093A0034E0F583E4F0E551B40313754B027550C6
:10094A0000754C0005517F01121522020AAAE551D1
:10095A00B4070E53E8FD5391DFE4FF121522020A91
:10096A00AA755000754C0005517F01121522020A22
:10097A00AA90E678E04440F090E679E0F534E54B59
:10098A00B40128E55125E02409F582E434E0F58331
:10099A00E534F0E551B40303754B02055175500077
:1009AA007F01121522754C00020AAAE551C454F0BF
:1009BA0024DFF582E434DFF583E534F0E551B4074A
:1009CA000EE4FF12152253E8FD5391DF020AAA75BD
:1009DA004C0075500005517F01121522020AAA9097
:1009EA00E678E04420F0E54BB4011690E679E0FFA2
:1009FA00E55125E02408F582E434E0F583EFF08040
:100A0A001590E679E0FFE551C454F024DEF582E45E
:100A1A0034DFF583EFF0054C7550047F011215227F
:100A2A00807E90E679E0FF75F010E551A4254CF53B
:100A3A0082E435F0F583E58224CCF582E58334DF60
:100A4A00F583EFF0054CE54CB412037550057F01B0
:100A5A00121522804B90E679E54FF0E54B7012E5CE
:100A6A004CB40108754F60755001800875500780B5
:100A7A0003755002054C7F01121522802390E678F7
:100A8A00E04440F0E551B4030AE4FF12152253E8AA
:100A9A00FD800D05517F01121522755000754C001D
:100AAA00D2AFD007D006D005D004D003D002D001EF
:0D0ABA00D000D0D0D082D083D0F0D0E03278
:03005B0002129CF2
:10129C00C0E0C0F0C083C082C0D075D000C000C018
:1012AC0001C002C003C004C005C006C007C2AF53D2
:1012BC00917FC20390E6A2E030E104D20380247A4D
:1012CC00E779C07EE77FC074E7F59A74C0F59B9010
:1012DC00E67B74EFF012144C90E67BEFF090E68F07
:1012EC007402F0D007D006D005D004D003D002D0C1
:0E12FC0001D000D0D0D082D083D0F0D0E0322C
:10144C0043B10153B1EF75B4FFE4F5A053B1DF43E1
:10145C00B12053B1DFF5B453B1FE43B110F5B45321
:10146C00B1DF43B12043B12043B120AFA053B1DF72
:01147C00224D
:0B15D40053A8FDE4F588F58CF58A2291
:10152200EF700BF54EF54DF58C758A018009754EFD
:0E15320001758CF3758A8075881043A802221B
:0300000002100DDE
:0C100D00787FE4F6D8FD75815302105482
:10109900EB9FF5F0EA9E42F0E99D42F0E89C45F0AD
:0110A9002224
:1010AA00E8600FECC313FCED13FDEE13FEEF13FF24
:0310BA00D8F12248
:1010BD00E8600FEFC333FFEE33FEED33FDEC33FC91
:0310CD00D8F12235
:1010D000D083D082F8E4937012740193700DA3A3AF
:1010E00093F8740193F5828883E4737402936860C3
:0610F000EFA3A3A380DFC3
:10101900020C5DE493A3F8E493A34003F68001F284
:1010290008DFF48029E493A3F85407240CC8C333D8
:10103900C4540F4420C8834004F456800146F6DFA7
:10104900E4800B010204081020408090004EE47EE9
:10105900019360BCA3FF543F30E509541FFEE4939C
:10106900A360010ECF54C025E060A840B8E493A363
:10107900FAE493A3F8E493A3C8C582C8CAC583CA8E
:10108900F0A3C8C582C8CAC583CADFE9DEE780BE46
:0100500000AF
:00000001FF
